:400000000010002011000000B1050000B105000010B500F0ABFD00F0D3FAC04610B50B4C12232360182000F02BFDC022D200084B1A60084A084B1A600422084B1A603C32CE
:40004000074B1A600023236010BDC046300010400003014040FF008000000140280003400401014010B572B6094A0A4B1A604022094B1A60C0225203084B1A601322084BFB
:400080001A60084A084B1A60FFF7C8FF10BDC046EEEE000000030240000204400802044000030440A46D0000080304400000000000000000000000000000000000000000BB
:4000C0000000000000000000000000000000000000000000000000000000000000000000000000000000000000000000000000000000000000000000000000000000000000
:4001000010B5064C2378002B07D1054B002B02D0044800E000BF0123237010BD00010020000000008C0F0000084B10B5002B03D00749084800E000BF07480368002B00D187
:4001400010BD064B002BFBD09847F9E700000000040100208C0F0000800000200000000070B5DC4B11221A705A70DB4B13321A705A70DA4B13321A705A7062B600F07AFA80
:40018000D74A50211170C02353709370D170D54A0131117053709370D170D34A0131117053709370D170D14A0131117053709370D170CF4A0131117053709370D170CD4AD3
:4001C0000131117053709370D170CB4A0131117053709370D170C94A0131117053709370D170002304E0BE4AD15CC54AD1540133032BF8DD002305E01A1DBA49C85CC04993
:4002000088540133032BF7DD002306E01A000832B549C85CBA4988540133032BF6DD002306E01A000C32B149C85CB54988540133032BF6DD002306E01A001032AC49C85C0D
:40024000AF4988540133032BF6DD002306E01A001432A849C85CAA4988540133032BF6DD002306E01A001832A349C85CA44988540133032BF6DD002306E01A001C329F491F
:40028000C85C9F4988540133032BF6DD002302229049742000F098FA0A2000F073FB002302228D49742000F08FFA0A2000F06AFB002302228949742000F086FA0A2000F083
:4002C00061FB00240BE0A1008D4BC91800230422742000F079FA012000F054FB0134072CF1DDFA20800000F04DFB7D4950230B7030224A70A0338B709020C87079493F38E2
:4003000008704A708B704030C87077493F3808704A708B704030C87074493F3808704A708B704030C87072493F3808704A708B704030C8706F493F3808704A708B70403000
:40034000C8706D493F3808704A708B704030C8706A493F3808704A708B70593BCB70002304E05F4AD15C664AD1540133032BF8DD002305E01A1D5B49C85C61498854013373
:40038000032BF7DD002306E01A0008325649C85C5B4988540133032BF6DD002306E01A000C325249C85C564988540133032BF6DD002306E01A0010324D49C85C5049885402
:4003C0000133032BF6DD002306E01A0014324949C85C4B4988540133032BF6DD002306E01A0018324449C85C454988540133032BF6DD002306E01A001C324049C85C4049A0
:4004000088540133032BF6DD00240BE0A1003C4BC91800230422742000F0D6F9012000F0B1FA0134072CF1DDFA20800000F0AAFA2B49502008700F224A700C238B705324EF
:40044000CC70284951250D704A708B705226CE7025490E704A708B70CD7024490C704A708B70C8702249043008704A708B700434CC70204904350D704A708B700436CE7031
:400480001D490E704A708B70CD701C490C704A708B70C870002304E0114AD15C184AD1540133032BF8DD002305E01A1D0D49C85C134988540133032BF7DD002306E01A0001
:4004C00008320949C85C0E4988540133032BF6DD00231EE05401002070010020740100202C0100206001002028010020500100206C0100206401002058010020680100208C
:40050000300100201A000C322349C85C234988540133032BF6DD002306E01A0010322049C85C1E4988540133032BF6DD002306E01A0014321B49C85C184988540133032B0B
:40054000F6DD002306E01A0018321749C85C134988540133032BF6DD002306E01A001C321249C85C0D4988540133032BF6DD00240BE0A100094BC91800230422742000F041
:4005800023F9012000F0FEF90134072CF1DDFA20800000F0F7F9F3E550010020300100206C01002064010020580100206801002010B500F0BFFC03680C2B00D1FEE7FEE70C
:4005C00070B50F4E0F4D13E029686B68AC68002202E001C901C30432A242FAD1E868002202E0002102C304328242FAD11035013E002EE9D100F0A4FCFFF7B2FDFEE7C046B0
:4006000001000000D00F000010B500230AE0032B03D89A000849505800E008489900084A885001331F2BF2D9FFF71CFD80229205044B1A6010BDC04600000000B105000096
:400640000000002008ED00E010B5082000F04CF910BDC04610B500F01DF810BD10B5044A1368802109060B431360FFF7EDFF10BD0000094010B5064B1B78002B04D1FFF763
:40068000E9FF0122024B1A70FFF7E8FF10BDC0461C01002010B50024184B1C60184A194B1A60194B194A1360194A1460194A1460194A1360194B1C60082000F01FF9032171
:4006C000082000F039F91649082000F023F9154B1C60154B1C60154B1C60154B1C60154B1C60154B1C601022144B1A70144B1C80144B1C60144B1C6010BDC046000009400D
:400700008808008060000940070100800003094004030940100309400002094004020940A10B0000C80E0940880E0940480F0940080F0940C80F0940880F094076010020A5
:4007400084010020800100208801002010B50E4A13685B005B08136000230C490B600C490B600C4804680C49214001600B490B600B490B6010210B4B19701368802109068E
:400780000B43136010BDC04600000940680009406C00094060000940FF5CFFFF880F0940C80F094076010020054B1B682022134000D0082301221343024A13607047C04605
:4007C0006400094068000940F0B583B001900C0017001D00002917D02A4B1B78102B08D1082000F08BF8284B1B68DB070ED508260FE0244B1B78602B0AD1244A13880821B9
:400800008B431380002604E0042602E0002600E00426002E2FD128221A4B1A7000231C4A13601C4A13601C4B1F601C4B1C60EAB21B4B1A70019B5C00FF231C40134A138812
:4008400002218B4313804023164A13601649174A11601421FF31164A1160164A1360EB0704D5FFF7A1FF144B1C6004E0124B1C600222124B1A60082000F036F8300003B067
:40088000F0BDC0467601002064000940840100209001002088010020980100207C0100208C010020800F094017030000000F0940080F0940880F0940400209406800094079
:4008C000024A1168024B0B401360704700000740FFFFFFBF034B18688023DB05184000D001207047000007401F2318401E3B8340014A13607047C04600E100E01F2318404A
:400900001E3B8340014A13607047C04680E100E001BE704770B504000D000F2802D90020FFF7F6FF1034A40080239B059C4664442068256070BDC04670B504000E000329BE
:4009400002D90020FFF7E4FF0F2C02D90020FFF7DFFF03252540ED00063500F01AF9A408A400074B9C46644421680323AB4099430B003100A9401943216000F00EF970BD19
:4009800000E400E010B5040006E0084B586800F0F7F8074B9C46644480231B029C42F4D8024B9868604300F0EBF810BD840000200080FFFF30B583B000F0CEF8002849D0CB
:4009C00000F0E7F80400244B196889001C2319401831224B1B689B0803221340D940204B1A68204B1340204A4A438020C00184466244D20B013A5205520D1343A0225203F8
:400A00001A431000192902D8184A13430CE0184BCB181B781A39174A525C9A18FF2A00D9FF229205030013430D4A1360124D2B680193302000F054FA104A13688021C90567
:400A40000B4313601420FFF79DFF019B2B60200000F0A3F803B030BD080F0340280003400800074000F800C040420F000000D43FCDF1FF0F900F00003000104000000740DB
:400A8000F0B583B0040018280BD01C2809D0202807D0242805D0282803D02C2801D0302849D100F076F80190FFF714FF002803D0FFF706FF012600E00026214A13680721FF
:400AC0008B4313601F4BE3181B78DBB21E4A13601E4A13688B4313601D4803687F22934319001C4BE3181B7813400B430360322000F046F8182C16D9114F3B680725AB4308
:400B00001A0023001C3B9B082B4013433B60322000F036F83A68AA432300183B9B082C001C4014433C60012E01D1FFF743FF019800F033F802E00020FFF7EAFE03B0F0BD62
:400B4000080F0340CDF1FF0F0C0F0340100F0340180F0340B4F1FF0F034B1B68002B01DA012000E00020704700000740014A024B1A6070476588EDAC3800034000000000B2
:400B80000230800803D001300238FCD1C046C0467047EFF3108072B6704780F31088704710B5AF4B1B68002B00D09847AD4B1B68DB0702D50022AC4B1A60AC4B1B789B068C
:400BC00028D5AB4B1B68DB0507D5AA4A1188C0239B000B431380012300E00023A44A1268D20706D5A34A118890239B000B4313800123002B0FD09D4A1278D20701D501226E
:400C000000E002229B49088802430A800021974A117000E00023954A1278920600D417E1934A1268D20611D51022934B1A608F4B1B78DB0701D5012300E002238D4A1188BD
:400C40000B4313801022894B1A7007E1874A1278120720D5864A126892070AD50222864B1A60844A118888239B000B431380012311E07E4A1278D20703D525217B4A11704F
:400C800009E02421794A11707C4A1268002A02D014397B4A1160754A1278520700D4AEE0724A1278D20749D5764A1268120727D5754A1268754909681F240C40744909684E
:400CC0006418141B082C09D8002C16D1714A1168714B0B401360012308340EE008240CE06B4A11686D48006841186D480068C0B20870116801311160013C002CF0D119E023
:400D0000604A1268520715D5614A116863480068411863480068C0B208701168013111601168594A1268914203D204215D4A116000E001235C495D4A116060E04C4A126817
:400D4000920726D502224C4B1A6059490B681D321A40096880231B020B4000D001239B18544A1168CB1A13601268534B1A60414A118884239B000B431380504B1A688021C3
:400D800049020A431A6019684D4A0A401A60012335E04C4A1268D2061ED427E0454A1168364A126891421DD2344A1268013A414909688A4204D1402243490A6030490A605D
:400DC0003C4A11684148006841180978C9B240480160116801311160354A12681F210A40082ADBD11021384A116008E0354A1268520604D52F4B1A682F4B1A600123002BD3
:400E00002CD0244A1168244B0B4013600023314A13601B4A1360304B1B789B070ED5134B1B78DB0701D5092300E00A23114A11880B43138060220D4B1A700FE0274B1B6827
:400E40009B0601D5182200E01022164B1A6005E0064B1B78DB0601D4FFF778FC10BDC046200100208C0E0940880E0940760100200C0F094084010020000F09409801002064
:400E8000880F0940CC0F094094010020080309408001002060000940FFFEFFFF780100204003094068000940ED0F0000C00F094008020940900100208801002004020940FA
:400EC000FFFFFEFF8C0F0940800F09407C01002040020940C80F09408C0100206400094070B50400FFF755FE0500102C05D8104A136803218B43136016E0202C07D80C4959
:400F00000B6803229343023A13430B600CE0302C07D807490B6803229343013A13430B6002E00020FFF7F4FC2800FFF736FE70BD30001040014B18687047C046F8000020DD
:400F40000E4B70B500251E000D4CE41AA410A54204D0AB00F35898470135F8E700F026F8084B00251E00084CE41AA410A54204D0AB00F35898470135F8E770BDB80F0000BD
:400F8000B80F0000B80F0000C00F000000000000EEDBC9B9AA9B8E82766B60564D443B332C241D17100A044300000000F8B5C046F8BC08BC9E4670472901000009060000BA
:400FC000F8B5C046F8BC08BC9E46704701010000E00F00008000002080000000A0000000000000000100000000007017E02E00000C000000001BB700000000000000000006
:40100000000000000000000000000000000000000000000000000000A70F0000000000000000000000000000000000000000000000000000000000000000000000000000FA
:4010400000000000000000000000000000000000000000000000000098000020000000000000000000000000000000000000000000000000000000000000000000000000B8
:401080000000000000000000000000000000000000000000000000000000000000000000000000000000000000000000000000000000000000000000000000000000000030
:4010C00000000000000000000000000000000000000000000000000000000000000000000000000000000000000000000000000000000000000000000000000000000000F0
:4011000000000000000000000000000000000000000000000000000000000000000000000000000000000000000000000000000000000000000000000000000000000000AF
:40114000000000000000000000000000000000000000000000000000000000000000000000000000000000000000000000000000000000000000000000000000000000006F
:0200000490303A
:02000000BCEE54
:0200000490402A
:200000000000000000000000000000000000000000000000000000000000000000000000E0
:0200000490501A
:0C0000000002190111A900011905CE979A
:0200000490600A
:0100000001FE
:00000001FF